{
	"contracts/PriceConverter.sol": {
		"PriceConverter": {
			"abi": [
				{
					"inputs": [
						{
							"internalType": "uint256",
							"name": "ethAmount",
							"type": "uint256"
						}
					],
					"name": "getConversionRate",
					"outputs": [
						{
							"internalType": "uint256",
							"name": "",
							"type": "uint256"
						}
					],
					"stateMutability": "view",
					"type": "function"
				},
				{
					"inputs": [],
					"name": "getPrice",
					"outputs": [
						{
							"internalType": "uint256",
							"name": "",
							"type": "uint256"
						}
					],
					"stateMutability": "view",
					"type": "function"
				}
			],
			"devdoc": {
				"kind": "dev",
				"methods": {},
				"version": 1
			},
			"evm": {
				"assembly": "    /* \"contracts/PriceConverter.sol\":179:901  library PriceConverter {... */\n  dataSize(sub_0)\n  dataOffset(sub_0)\n  0x0b\n  dup3\n  dup3\n  dup3\n  codecopy\n  dup1\n  mload\n  0x00\n  byte\n  0x73\n  eq\n  tag_1\n  jumpi\n  mstore(0x00, shl(0xe0, 0x4e487b71))\n  mstore(0x04, 0x00)\n  revert(0x00, 0x24)\ntag_1:\n  mstore(0x00, address)\n  0x73\n  dup2\n  mstore8\n  dup3\n  dup2\n  return\nstop\n\nsub_0: assembly {\n        /* \"contracts/PriceConverter.sol\":179:901  library PriceConverter {... */\n      eq(address, deployTimeAddress())\n      mstore(0x40, 0x80)\n      jumpi(tag_1, lt(calldatasize, 0x04))\n      shr(0xe0, calldataload(0x00))\n      dup1\n      0x6e5b6b28\n      eq\n      tag_2\n      jumpi\n      dup1\n      0x98d5fdca\n      eq\n      tag_3\n      jumpi\n    tag_1:\n      0x00\n      dup1\n      revert\n        /* \"contracts/PriceConverter.sol\":595:896  function getConversionRate(uint256 ethAmount) public view returns(uint256) {... */\n    tag_2:\n      tag_4\n      tag_5\n      calldatasize\n      0x04\n      tag_6\n      jump\t// in\n    tag_5:\n      tag_7\n      jump\t// in\n    tag_4:\n      mload(0x40)\n        /* \"#utility.yul\":353:378   */\n      swap1\n      dup2\n      mstore\n        /* \"#utility.yul\":341:343   */\n      0x20\n        /* \"#utility.yul\":326:344   */\n      add\n        /* \"contracts/PriceConverter.sol\":595:896  function getConversionRate(uint256 ethAmount) public view returns(uint256) {... */\n      mload(0x40)\n      dup1\n      swap2\n      sub\n      swap1\n      return\n        /* \"contracts/PriceConverter.sol\":211:587  function getPrice() public view returns(uint256) {... */\n    tag_3:\n      tag_4\n      tag_11\n      jump\t// in\n        /* \"contracts/PriceConverter.sol\":595:896  function getConversionRate(uint256 ethAmount) public view returns(uint256) {... */\n    tag_7:\n        /* \"contracts/PriceConverter.sol\":661:668  uint256 */\n      0x00\n        /* \"contracts/PriceConverter.sol\":681:697  uint256 ethPrice */\n      dup1\n        /* \"contracts/PriceConverter.sol\":700:710  getPrice() */\n      tag_14\n        /* \"contracts/PriceConverter.sol\":700:708  getPrice */\n      tag_11\n        /* \"contracts/PriceConverter.sol\":700:710  getPrice() */\n      jump\t// in\n    tag_14:\n        /* \"contracts/PriceConverter.sol\":681:710  uint256 ethPrice = getPrice() */\n      swap1\n      pop\n        /* \"contracts/PriceConverter.sol\":777:799  uint256 ethAmountInUsd */\n      0x00\n        /* \"contracts/PriceConverter.sol\":828:832  1e18 */\n      0x0de0b6b3a7640000\n        /* \"contracts/PriceConverter.sol\":803:823  ethPrice * ethAmount */\n      tag_15\n        /* \"contracts/PriceConverter.sol\":814:823  ethAmount */\n      dup6\n        /* \"contracts/PriceConverter.sol\":681:710  uint256 ethPrice = getPrice() */\n      dup5\n        /* \"contracts/PriceConverter.sol\":803:823  ethPrice * ethAmount */\n      tag_16\n      jump\t// in\n    tag_15:\n        /* \"contracts/PriceConverter.sol\":802:832  (ethPrice * ethAmount ) / 1e18 */\n      tag_17\n      swap2\n      swap1\n      tag_18\n      jump\t// in\n    tag_17:\n        /* \"contracts/PriceConverter.sol\":777:832  uint256 ethAmountInUsd = (ethPrice * ethAmount ) / 1e18 */\n      swap5\n        /* \"contracts/PriceConverter.sol\":595:896  function getConversionRate(uint256 ethAmount) public view returns(uint256) {... */\n      swap4\n      pop\n      pop\n      pop\n      pop\n      jump\t// out\n        /* \"contracts/PriceConverter.sol\":211:587  function getPrice() public view returns(uint256) {... */\n    tag_11:\n        /* \"contracts/PriceConverter.sol\":251:258  uint256 */\n      0x00\n        /* \"contracts/PriceConverter.sol\":350:381  AggregatorV3Interface priceFeed */\n      dup1\n        /* \"contracts/PriceConverter.sol\":406:448  0x694AA1769357215DE4FAC081bf1f309aDC325306 */\n      0x694aa1769357215de4fac081bf1f309adc325306\n        /* \"contracts/PriceConverter.sol\":350:449  AggregatorV3Interface priceFeed = AggregatorV3Interface(0x694AA1769357215DE4FAC081bf1f309aDC325306) */\n      swap1\n      pop\n        /* \"contracts/PriceConverter.sol\":463:475  int256 price */\n      0x00\n        /* \"contracts/PriceConverter.sol\":482:491  priceFeed */\n      dup2\n      sub(shl(0xa0, 0x01), 0x01)\n        /* \"contracts/PriceConverter.sol\":482:507  priceFeed.latestRoundData */\n      and\n      0xfeaf968c\n        /* \"contracts/PriceConverter.sol\":482:509  priceFeed.latestRoundData() */\n      mload(0x40)\n      dup2\n      0xffffffff\n      and\n      0xe0\n      shl\n      dup2\n      mstore\n      0x04\n      add\n      0xa0\n      mload(0x40)\n      dup1\n      dup4\n      sub\n      dup2\n      dup7\n      gas\n      staticcall\n      iszero\n      dup1\n      iszero\n      tag_21\n      jumpi\n      returndatasize\n      0x00\n      dup1\n      returndatacopy\n      revert(0x00, returndatasize)\n    tag_21:\n      pop\n      pop\n      pop\n      pop\n      mload(0x40)\n      returndatasize\n      not(0x1f)\n      0x1f\n      dup3\n      add\n      and\n      dup3\n      add\n      dup1\n      0x40\n      mstore\n      pop\n      dup2\n      add\n      swap1\n      tag_22\n      swap2\n      swap1\n      tag_23\n      jump\t// in\n    tag_22:\n        /* \"contracts/PriceConverter.sol\":460:509  (, int256 price,,,) = priceFeed.latestRoundData() */\n      pop\n      pop\n      pop\n      swap2\n      pop\n      pop\n        /* \"contracts/PriceConverter.sol\":566:571  price */\n      dup1\n        /* \"contracts/PriceConverter.sol\":574:578  1e10 */\n      0x02540be400\n        /* \"contracts/PriceConverter.sol\":566:578  price * 1e10 */\n      tag_24\n      swap2\n      swap1\n      tag_25\n      jump\t// in\n    tag_24:\n        /* \"contracts/PriceConverter.sol\":550:579  return uint256 (price * 1e10) */\n      swap3\n      pop\n      pop\n      pop\n        /* \"contracts/PriceConverter.sol\":211:587  function getPrice() public view returns(uint256) {... */\n      swap1\n      jump\t// out\n        /* \"#utility.yul\":14:194   */\n    tag_6:\n        /* \"#utility.yul\":73:79   */\n      0x00\n        /* \"#utility.yul\":126:128   */\n      0x20\n        /* \"#utility.yul\":114:123   */\n      dup3\n        /* \"#utility.yul\":105:112   */\n      dup5\n        /* \"#utility.yul\":101:124   */\n      sub\n        /* \"#utility.yul\":97:129   */\n      slt\n        /* \"#utility.yul\":94:146   */\n      iszero\n      tag_30\n      jumpi\n        /* \"#utility.yul\":142:143   */\n      0x00\n        /* \"#utility.yul\":139:140   */\n      dup1\n        /* \"#utility.yul\":132:144   */\n      revert\n        /* \"#utility.yul\":94:146   */\n    tag_30:\n      pop\n        /* \"#utility.yul\":165:188   */\n      calldataload\n      swap2\n        /* \"#utility.yul\":14:194   */\n      swap1\n      pop\n      jump\t// out\n        /* \"#utility.yul\":389:516   */\n    tag_26:\n        /* \"#utility.yul\":450:460   */\n      0x4e487b71\n        /* \"#utility.yul\":445:448   */\n      0xe0\n        /* \"#utility.yul\":441:461   */\n      shl\n        /* \"#utility.yul\":438:439   */\n      0x00\n        /* \"#utility.yul\":431:462   */\n      mstore\n        /* \"#utility.yul\":481:485   */\n      0x11\n        /* \"#utility.yul\":478:479   */\n      0x04\n        /* \"#utility.yul\":471:486   */\n      mstore\n        /* \"#utility.yul\":505:509   */\n      0x24\n        /* \"#utility.yul\":502:503   */\n      0x00\n        /* \"#utility.yul\":495:510   */\n      revert\n        /* \"#utility.yul\":521:689   */\n    tag_16:\n        /* \"#utility.yul\":594:603   */\n      dup1\n      dup3\n      mul\n        /* \"#utility.yul\":625:634   */\n      dup2\n      iszero\n        /* \"#utility.yul\":642:657   */\n      dup3\n      dup3\n      div\n        /* \"#utility.yul\":636:658   */\n      dup5\n      eq\n        /* \"#utility.yul\":622:659   */\n      or\n        /* \"#utility.yul\":612:683   */\n      tag_35\n      jumpi\n        /* \"#utility.yul\":663:681   */\n      tag_35\n      tag_26\n      jump\t// in\n    tag_35:\n        /* \"#utility.yul\":521:689   */\n      swap3\n      swap2\n      pop\n      pop\n      jump\t// out\n        /* \"#utility.yul\":694:911   */\n    tag_18:\n        /* \"#utility.yul\":734:735   */\n      0x00\n        /* \"#utility.yul\":760:761   */\n      dup3\n        /* \"#utility.yul\":750:882   */\n      tag_37\n      jumpi\n        /* \"#utility.yul\":804:814   */\n      0x4e487b71\n        /* \"#utility.yul\":799:802   */\n      0xe0\n        /* \"#utility.yul\":795:815   */\n      shl\n        /* \"#utility.yul\":792:793   */\n      0x00\n        /* \"#utility.yul\":785:816   */\n      mstore\n        /* \"#utility.yul\":839:843   */\n      0x12\n        /* \"#utility.yul\":836:837   */\n      0x04\n        /* \"#utility.yul\":829:844   */\n      mstore\n        /* \"#utility.yul\":867:871   */\n      0x24\n        /* \"#utility.yul\":864:865   */\n      0x00\n        /* \"#utility.yul\":857:872   */\n      revert\n        /* \"#utility.yul\":750:882   */\n    tag_37:\n      pop\n        /* \"#utility.yul\":896:905   */\n      div\n      swap1\n        /* \"#utility.yul\":694:911   */\n      jump\t// out\n        /* \"#utility.yul\":916:1095   */\n    tag_27:\n        /* \"#utility.yul\":994:1007   */\n      dup1\n      mload\n        /* \"#utility.yul\":1047:1069   */\n      0xffffffffffffffffffff\n        /* \"#utility.yul\":1036:1070   */\n      dup2\n      and\n        /* \"#utility.yul\":1026:1071   */\n      dup2\n      eq\n        /* \"#utility.yul\":1016:1089   */\n      tag_39\n      jumpi\n        /* \"#utility.yul\":1085:1086   */\n      0x00\n        /* \"#utility.yul\":1082:1083   */\n      dup1\n        /* \"#utility.yul\":1075:1087   */\n      revert\n        /* \"#utility.yul\":1016:1089   */\n    tag_39:\n        /* \"#utility.yul\":916:1095   */\n      swap2\n      swap1\n      pop\n      jump\t// out\n        /* \"#utility.yul\":1100:1573   */\n    tag_23:\n        /* \"#utility.yul\":1203:1209   */\n      0x00\n        /* \"#utility.yul\":1211:1217   */\n      dup1\n        /* \"#utility.yul\":1219:1225   */\n      0x00\n        /* \"#utility.yul\":1227:1233   */\n      dup1\n        /* \"#utility.yul\":1235:1241   */\n      0x00\n        /* \"#utility.yul\":1288:1291   */\n      0xa0\n        /* \"#utility.yul\":1276:1285   */\n      dup7\n        /* \"#utility.yul\":1267:1274   */\n      dup9\n        /* \"#utility.yul\":1263:1286   */\n      sub\n        /* \"#utility.yul\":1259:1292   */\n      slt\n        /* \"#utility.yul\":1256:1309   */\n      iszero\n      tag_41\n      jumpi\n        /* \"#utility.yul\":1305:1306   */\n      0x00\n        /* \"#utility.yul\":1302:1303   */\n      dup1\n        /* \"#utility.yul\":1295:1307   */\n      revert\n        /* \"#utility.yul\":1256:1309   */\n    tag_41:\n        /* \"#utility.yul\":1328:1367   */\n      tag_42\n        /* \"#utility.yul\":1357:1366   */\n      dup7\n        /* \"#utility.yul\":1328:1367   */\n      tag_27\n      jump\t// in\n    tag_42:\n        /* \"#utility.yul\":1318:1367   */\n      swap5\n      pop\n        /* \"#utility.yul\":1407:1409   */\n      0x20\n        /* \"#utility.yul\":1396:1405   */\n      dup7\n        /* \"#utility.yul\":1392:1410   */\n      add\n        /* \"#utility.yul\":1386:1411   */\n      mload\n        /* \"#utility.yul\":1376:1411   */\n      swap4\n      pop\n        /* \"#utility.yul\":1451:1453   */\n      0x40\n        /* \"#utility.yul\":1440:1449   */\n      dup7\n        /* \"#utility.yul\":1436:1454   */\n      add\n        /* \"#utility.yul\":1430:1455   */\n      mload\n        /* \"#utility.yul\":1420:1455   */\n      swap3\n      pop\n        /* \"#utility.yul\":1495:1497   */\n      0x60\n        /* \"#utility.yul\":1484:1493   */\n      dup7\n        /* \"#utility.yul\":1480:1498   */\n      add\n        /* \"#utility.yul\":1474:1499   */\n      mload\n        /* \"#utility.yul\":1464:1499   */\n      swap2\n      pop\n        /* \"#utility.yul\":1518:1567   */\n      tag_43\n        /* \"#utility.yul\":1562:1565   */\n      0x80\n        /* \"#utility.yul\":1551:1560   */\n      dup8\n        /* \"#utility.yul\":1547:1566   */\n      add\n        /* \"#utility.yul\":1518:1567   */\n      tag_27\n      jump\t// in\n    tag_43:\n        /* \"#utility.yul\":1508:1567   */\n      swap1\n      pop\n        /* \"#utility.yul\":1100:1573   */\n      swap3\n      swap6\n      pop\n      swap3\n      swap6\n      swap1\n      swap4\n      pop\n      jump\t// out\n        /* \"#utility.yul\":1578:1815   */\n    tag_25:\n        /* \"#utility.yul\":1650:1659   */\n      dup1\n      dup3\n      mul\n        /* \"#utility.yul\":1617:1624   */\n      0x00\n        /* \"#utility.yul\":1675:1684   */\n      dup3\n      slt\n      shl(0xff, 0x01)\n        /* \"#utility.yul\":1686:1704   */\n      dup5\n      eq\n        /* \"#utility.yul\":1671:1705   */\n      and\n        /* \"#utility.yul\":1668:1728   */\n      iszero\n      tag_46\n      jumpi\n        /* \"#utility.yul\":1708:1726   */\n      tag_46\n      tag_26\n      jump\t// in\n    tag_46:\n        /* \"#utility.yul\":1781:1782   */\n      dup2\n        /* \"#utility.yul\":1772:1779   */\n      dup2\n        /* \"#utility.yul\":1767:1783   */\n      sdiv\n        /* \"#utility.yul\":1764:1765   */\n      dup4\n        /* \"#utility.yul\":1761:1784   */\n      eq\n        /* \"#utility.yul\":1757:1758   */\n      dup3\n        /* \"#utility.yul\":1750:1759   */\n      iszero\n        /* \"#utility.yul\":1747:1785   */\n      or\n        /* \"#utility.yul\":1737:1809   */\n      tag_35\n      jumpi\n        /* \"#utility.yul\":1789:1807   */\n      tag_35\n      tag_26\n      jump\t// in\n\n    auxdata: 0xa2646970667358221220e7fae4409f4d5220294fd778462132efce2463717ebc9147ca12f79e8e1b344864736f6c63430008120033\n}\n",
				"bytecode": {
					"linkReferences": {},
					"object": "61028561003a600b82828239805160001a60731461002d57634e487b7160e01b600052600060045260246000fd5b30600052607381538281f3fe73000000000000000000000000000000000000000030146080604052600436106100405760003560e01c80636e5b6b281461004557806398d5fdca1461006a575b600080fd5b610058610053366004610142565b610072565b60405190815260200160405180910390f35b6100586100a6565b60008061007d6100a6565b90506000670de0b6b3a76400006100948584610171565b61009e919061018e565b949350505050565b60008073694aa1769357215de4fac081bf1f309adc32530690506000816001600160a01b031663feaf968c6040518163ffffffff1660e01b815260040160a060405180830381865afa158015610100573d6000803e3d6000fd5b505050506040513d601f19601f8201168201806040525081019061012491906101cf565b505050915050806402540be40061013b919061021f565b9250505090565b60006020828403121561015457600080fd5b5035919050565b634e487b7160e01b600052601160045260246000fd5b80820281158282048414176101885761018861015b565b92915050565b6000826101ab57634e487b7160e01b600052601260045260246000fd5b500490565b805169ffffffffffffffffffff811681146101ca57600080fd5b919050565b600080600080600060a086880312156101e757600080fd5b6101f0866101b0565b9450602086015193506040860151925060608601519150610213608087016101b0565b90509295509295909350565b80820260008212600160ff1b8414161561023b5761023b61015b565b81810583148215176101885761018861015b56fea2646970667358221220e7fae4409f4d5220294fd778462132efce2463717ebc9147ca12f79e8e1b344864736f6c63430008120033",
					"opcodes": "PUSH2 0x285 PUSH2 0x3A PUSH1 0xB DUP3 DUP3 DUP3 CODECOPY DUP1 MLOAD PUSH1 0x0 BYTE PUSH1 0x73 EQ PUSH2 0x2D JUMPI PUSH4 0x4E487B71 PUSH1 0xE0 SHL PUSH1 0x0 MSTORE PUSH1 0x0 PUSH1 0x4 MSTORE PUSH1 0x24 PUSH1 0x0 REVERT JUMPDEST ADDRESS PUSH1 0x0 MSTORE PUSH1 0x73 DUP2 MSTORE8 DUP3 DUP2 RETURN INVALID PUSH20 0x0 ADDRESS EQ PUSH1 0x80 PUSH1 0x40 MSTORE PUSH1 0x4 CALLDATASIZE LT PUSH2 0x40 JUMPI PUSH1 0x0 CALLDATALOAD PUSH1 0xE0 SHR DUP1 PUSH4 0x6E5B6B28 EQ PUSH2 0x45 JUMPI DUP1 PUSH4 0x98D5FDCA EQ PUSH2 0x6A JUMPI JUMPDEST PUSH1 0x0 DUP1 REVERT JUMPDEST PUSH2 0x58 PUSH2 0x53 CALLDATASIZE PUSH1 0x4 PUSH2 0x142 JUMP JUMPDEST PUSH2 0x72 JUMP JUMPDEST PUSH1 0x40 MLOAD SWAP1 DUP2 MSTORE PUSH1 0x20 ADD PUSH1 0x40 MLOAD DUP1 SWAP2 SUB SWAP1 RETURN JUMPDEST PUSH2 0x58 PUSH2 0xA6 JUMP JUMPDEST PUSH1 0x0 DUP1 PUSH2 0x7D PUSH2 0xA6 JUMP JUMPDEST SWAP1 POP PUSH1 0x0 PUSH8 0xDE0B6B3A7640000 PUSH2 0x94 DUP6 DUP5 PUSH2 0x171 JUMP JUMPDEST PUSH2 0x9E SWAP2 SWAP1 PUSH2 0x18E JUMP JUMPDEST SWAP5 SWAP4 POP POP POP POP JUMP JUMPDEST PUSH1 0x0 DUP1 PUSH20 0x694AA1769357215DE4FAC081BF1F309ADC325306 SWAP1 POP PUSH1 0x0 DUP2 PUSH1 0x1 PUSH1 0x1 PUSH1 0xA0 SHL SUB AND PUSH4 0xFEAF968C PUSH1 0x40 MLOAD DUP2 PUSH4 0xFFFFFFFF AND PUSH1 0xE0 SHL DUP2 MSTORE PUSH1 0x4 ADD PUSH1 0xA0 PUSH1 0x40 MLOAD DUP1 DUP4 SUB DUP2 DUP7 GAS STATICCALL ISZERO DUP1 ISZERO PUSH2 0x100 JUMPI RETURNDATASIZE PUSH1 0x0 DUP1 RETURNDATACOPY RETURNDATASIZE PUSH1 0x0 REVERT JUMPDEST POP POP POP POP PUSH1 0x40 MLOAD RETURNDATASIZE PUSH1 0x1F NOT PUSH1 0x1F DUP3 ADD AND DUP3 ADD DUP1 PUSH1 0x40 MSTORE POP DUP2 ADD SWAP1 PUSH2 0x124 SWAP2 SWAP1 PUSH2 0x1CF JUMP JUMPDEST POP POP POP SWAP2 POP POP DUP1 PUSH5 0x2540BE400 PUSH2 0x13B SWAP2 SWAP1 PUSH2 0x21F JUMP JUMPDEST SWAP3 POP POP POP SWAP1 JUMP JUMPDEST PUSH1 0x0 PUSH1 0x20 DUP3 DUP5 SUB SLT ISZERO PUSH2 0x154 JUMPI PUSH1 0x0 DUP1 REVERT JUMPDEST POP CALLDATALOAD SWAP2 SWAP1 POP JUMP JUMPDEST PUSH4 0x4E487B71 PUSH1 0xE0 SHL PUSH1 0x0 MSTORE PUSH1 0x11 PUSH1 0x4 MSTORE PUSH1 0x24 PUSH1 0x0 REVERT JUMPDEST DUP1 DUP3 MUL DUP2 ISZERO DUP3 DUP3 DIV DUP5 EQ OR PUSH2 0x188 JUMPI PUSH2 0x188 PUSH2 0x15B JUMP JUMPDEST SWAP3 SWAP2 POP POP JUMP JUMPDEST PUSH1 0x0 DUP3 PUSH2 0x1AB JUMPI PUSH4 0x4E487B71 PUSH1 0xE0 SHL PUSH1 0x0 MSTORE PUSH1 0x12 PUSH1 0x4 MSTORE PUSH1 0x24 PUSH1 0x0 REVERT JUMPDEST POP DIV SWAP1 JUMP JUMPDEST DUP1 MLOAD PUSH10 0xFFFFFFFFFFFFFFFFFFFF DUP2 AND DUP2 EQ PUSH2 0x1CA JUMPI PUSH1 0x0 DUP1 REVERT JUMPDEST SWAP2 SWAP1 POP JUMP JUMPDEST PUSH1 0x0 DUP1 PUSH1 0x0 DUP1 PUSH1 0x0 PUSH1 0xA0 DUP7 DUP9 SUB SLT ISZERO PUSH2 0x1E7 JUMPI PUSH1 0x0 DUP1 REVERT JUMPDEST PUSH2 0x1F0 DUP7 PUSH2 0x1B0 JUMP JUMPDEST SWAP5 POP PUSH1 0x20 DUP7 ADD MLOAD SWAP4 POP PUSH1 0x40 DUP7 ADD MLOAD SWAP3 POP PUSH1 0x60 DUP7 ADD MLOAD SWAP2 POP PUSH2 0x213 PUSH1 0x80 DUP8 ADD PUSH2 0x1B0 JUMP JUMPDEST SWAP1 POP SWAP3 SWAP6 POP SWAP3 SWAP6 SWAP1 SWAP4 POP JUMP JUMPDEST DUP1 DUP3 MUL PUSH1 0x0 DUP3 SLT PUSH1 0x1 PUSH1 0xFF SHL DUP5 EQ AND ISZERO PUSH2 0x23B JUMPI PUSH2 0x23B PUSH2 0x15B JUMP JUMPDEST DUP2 DUP2 SDIV DUP4 EQ DUP3 ISZERO OR PUSH2 0x188 JUMPI PUSH2 0x188 PUSH2 0x15B JUMP INVALID LOG2 PUSH5 0x6970667358 0x22 SLT KECCAK256 0xE7 STATICCALL 0xE4 BLOCKHASH SWAP16 0x4D MSTORE KECCAK256 0x29 0x4F 0xD7 PUSH25 0x462132EFCE2463717EBC9147CA12F79E8E1B344864736F6C63 NUMBER STOP ADDMOD SLT STOP CALLER "
				},
				"gasEstimates": {
					"creation": {
						"codeDepositCost": "129000",
						"executionCost": "208",
						"totalCost": "129208"
					},
					"external": {
						"getConversionRate(uint256)": "infinite",
						"getPrice()": "infinite"
					}
				},
				"methodIdentifiers": {
					"getConversionRate(uint256)": "6e5b6b28",
					"getPrice()": "98d5fdca"
				}
			},
			"storageLayout": {
				"storage": [],
				"types": null
			},
			"userdoc": {
				"kind": "user",
				"methods": {},
				"version": 1
			}
		}
	}
}